:100000000B308A001B2B0000FF00030E8301A100B0
:100010007F08A0000A08A7008A01A00E0408A20019
:100020007708A3007808A4007908A5007A08A6003C
:10003000831383120B1E1E288B182F28220884007E
:100040002308F7002408F8002508F9002608FA001C
:1000500027088A00210E8300FF0E7F0E09008A11F7
:100060003128AA0A2A0B37288F018E015A282A081C
:10007000023C031D5A283C280C1C49284230F7003A
:10008000F70B402800000C10AE01AD01AC01AB0134
:1000900057280F08FA000E08F7000F087A02031D10
:1000A00049287708AB007A08AC00AD01AE012F11EA
:1000B000AA012F140130B000F8008B108A111E28FD
:1000C000713083168F00B03087007830F800063822
:1000D00083129200FA30831692003530831290001A
:1000E0000B1683160113C03083128B049F121F134B
:1000F0000030831691001F169F161F1383129F173F
:100100001F148A15672B8E30F70003173C08F80080
:100110003B08F900FA01F808031D98287908F8004F
:10012000F9010830F702F808031D9828F701A02804
:100130000310F81B9F28F90DF80DF7039828F81302
:100140000313080003175A0803191329E2005E0875
:1001500003191329E2070318B4287F30E202031CB5
:10016000132903191329B8288130E207031813292A
:100170006208F700F801F901FA015B08E600E617EA
:100180005C08E5005D08E4001830E200E301641C4F
:10019000E1286108FA07031CD328F90A031DD328B4
:1001A000F80A0319E3176008F907031CDA28F80AAC
:1001B0000319E3175F08DC00DC175C08F807031875
:1001C000E317E30DF80CF90CFA0CE60CE50CE40C63
:1001D0000310E20BC6280130F70703181329F81B98
:1001E000F828E60DFA0DF90DF80DF7030319132998
:1001F000E61F0929FA0A031D0929F90A031D09291D
:10020000F80A031D0929F80CF90CFA0CF70A03196E
:1002100013295B08E3005F08E306E31F1129F817C1
:100220001729F8131729F701F801F901FA01031347
:1002300008008030831C1F290317DF0603130317F0
:10024000E401E5015B08E3005F08E3065A080319CF
:100250000D2AE200F7005E080319162AE2020319CC
:10026000B229031C70295F08E800E8176008E7005E
:100270006108E600E5010310E80CE70CE60CE50C6C
:10028000E20B3A29E31F472964142A2A64106210FA
:1002900064165D30840083173F2A6412E31B5A29D9
:1002A000621C6529E80CE70CE60CE50CF70A03195B
:1002B000252A6529E81B68290310E50DE60DE70DE1
:1002C000E80DF7030319252A5A296417D229641364
:1002D0005B08E300E31F6E29E8171E2AE8131E2AB5
:1002E0005E08E200F7005A08E2025B08E800E8173F
:1002F0005C08E7005D08E600E5010310E80CE70C88
:10030000E60CE50CE20B7C29E31F8929E4142A2A78
:10031000E4106210E4166130840083173F2AE4126F
:10032000E31B9C29621CA729E80CE70CE60CE50CF2
:10033000F70A0319252AA729E81BAA290310E50DA6
:10034000E60DE70DE80DF7030319252A9C29E417AC
:10035000D229E4135F08E300E31FB029E8171E2A3F
:10036000E8131E2A5F08E800E8176008E700610844
:10037000E600E31FBF29E81364152A2A6411E5018A
:1003800062105D30840083173F2AE31BE8295B0875
:10039000E300621CD229E80CE70CE60CE50CF70A36
:1003A0000319252AE51FE329E60A031DE329E70AC5
:1003B000031DE329E80A031DE329E80CE70CE60C1A
:1003C000F70A0319252A641B6729E41BA929072AB0
:1003D0008030E806E81FF0292A2A5F08E300FD299B
:1003E0005B08E300E808031DFD29E708031DFD295C
:1003F000E608031DFD29F7011E2AE81B072A031042
:10040000E50DE60DE70DE80DF70BFD29252AE31FA5
:100410000B2AE8171E2AE8131E2A5E08F7005F0859
:10042000E8006008E7006108E6001E2A5A08F700A5
:100430005B08E8005C08E7005D08E6006808F80073
:100440006708F9006608FA005D2AF701F801F9016A
:10045000FA015D2AE501E609E709E809E509E50A87
:10046000031D382AE60A031D382AE70A0319E80A99
:1004700064184629E41888296419BE29ED29000862
:10048000E607031C492AE70A031D492AE80A03195B
:10049000621484030008E707031C512AE80A0319C1
:1004A000621484030008801F803AE807031862146E
:1004B000641A4D29E41A8F29C5290313080003176C
:1004C0003B080319252BC7003F080319252BC7023A
:1004D000031C6F2A7F30C7070318252B752A81302C
:1004E000C702031C252B0319252B4708F700F80129
:1004F000F901FA01C6013C08C500C5173D08C40052
:100500003E08C3001930C7004208C3020318982AE6
:100510000130C4020318982AC5020318982AC6029B
:100520000318982AC60AC50AC40A4208C307CA2A79
:100530004108C4020318B32A0130C5020318B32AC4
:10054000C6020318B32AC60AC50A4108C4074208EE
:10055000C307031CCA2AC40A031DCA2AC50A031DED
:10056000CA2AC60ACA2A40088038C5020318C92AFE
:100570000130C6020318C92AC60A40088038C507D8
:100580004108C407031CA72AC50A031DA72AC60AD7
:10059000A72A7A14C70BCD2AD82A0310C30DC40D7D
:1005A000C50DC60D0310FA0DF90DF80DC80D842AFE
:1005B000481CE02A0310F80CF90CFA0CC80CE32ACA
:1005C000F7030319252BC81B0C2B0310C30DC40DF7
:1005D000C50DC60D4208C3020318F82A0130C40233
:1005E0000318F82AC5020318F82AC602031C1B2B9D
:1005F0004108C4020318032B0130C5020318032B62
:10060000C602031C1B2B40088038C50203180C2BA4
:100610000130C602031C1B2BFA0A031D1B2BF90A0F
:10062000031D1B2BF80A031D1B2BF70A0319252B8F
:10063000F80CF90CFA0C3C08C7004008C706C71FA5
:10064000232BF817292BF813292BF701F801F901AF
:10065000FA01031308008E30F70003173B08F70276
:100660003C08F9003D08F800F917F7080319432B77
:100670000310F908031D3F2BF8080319432BF90C4D
:10068000F80CF70B382BBC1F4A2BF809F909F80AAC
:100690000319F90A0313080003175708DE005B0863
:1006A000DE06DE1F582B03110310D71B03148B2B00
:1006B0005708DE005A08DF005608DF020319662BD0
:1006C000DE1F8B2B0308013A83008B2B5B08DF00B6
:1006D0005708DF020319722BDE1F8B2B0308013A28
:1006E00083008B2B5C08DF005808DF0203197E2B88
:1006F000DE1F8B2B0308013A83008B2B5D08DF0084
:100700005908DF0203198A2BDE1F8B2B0308013ADD
:1007100083008B2B0310031308000317B101B001F2
:100720004830AF008530AE00B501B401B301B2016D
:10073000B601BA01B901B801B70101300313C9000C
:100740004908403C031CC32C490803178D0083163D
:100750008C130C1483120C080313CC004C082F3C90
:100760000318102C4C08393C031C102C30304C0260
:100770000317BC01BB00031383207A080317B500DD
:100780007908B4007808B3007708B2003508DD00B6
:100790003408DC003308DB003208DA003108E100FD
:1007A0003008E0002F08DF002E08DE000313A2202F
:1007B000831003173A08DD003908DC003808DB0035
:1007C0003708DA007A08E1007908E0007808DF00ED
:1007D0007708DE00031319217A080317BA00790895
:1007E000B9007808B8007708B7003108BE003008B3
:1007F000BD002F08BC002E08BB00C201C101203083
:10080000C0008230BF0003135F227A080317B100D3
:100810007908B0007808AF007708AE00C02C031349
:100820004C082C3C0319182C4C08233C031D712C3C
:1008300003173608083C031D2B2C3A08BE00390864
:10084000BD003808BC003708BB0003132B23780811
:10085000C7005F2C03173608093C031D3D2C3A08DE
:10086000BE003908BD003808BC003708BB000313C0
:100870002B237808C8005F2C031736080A3C031D99
:100880004A2C0313AF130317371C492C0313AF175C
:1008900003175E2C360DF700F70DFC30F7057708CF
:1008A000523E8400831337088000840A3808800091
:1008B000840A39088000840A3A0880000313031769
:1008C000BA01B901B801B701B60AB101B0014830A7
:1008D000AF008530AE0003134C08233C0319C32C32
:1008E000C12C4C082E3C031DC12C0317D901D80183
:1008F000D7017F30D6003108DD003008DC002F083A
:10090000DB002E08DA0003134C230318892C031D87
:10091000B72C03173108DD003008DC002F08DB009E
:100920002E08DA00E101E0012030DF008230DE0035
:100930000313A22003173A08BE003908BD00380887
:10094000BC003708BB007A08C2007908C1007808EB
:10095000C0007708BF0003135F227A080317BA00AC
:100960007908B9007808B8007708B7000313CD30CC
:100970000317B100CC30B0004C30AF007B30AE007C
:100980000313C90AA02B0800323084008317000823
:100990000319D72C0230F800F701F70BCD2CF80B18
:1009A000CC2C9730F700F70BD32C800BCA2C080007
:1009B000071407110317B408031DE12C7030B607A4
:1009C000E52C340BE52CF030B607B801B701B808B8
:1009D000031D1B2D37080F3C031C1B2DB9013608C6
:1009E0008039BA003A0DB901BA010318391439181F
:1009F000FC2C031387100317391C012D03138714D4
:100A000003170630F700F70B032D000003138711BF
:100A10000630F700F70B0A2D000087150630F700A7
:100A2000F70B102D000003100317B50DB60DB70A14
:100A30000319B80AE72C0313071507100630F7004F
:100A4000F70B202D000007140800031731080313CB
:100A5000B900031730080313B80003172F08031356
:100A6000B70003172E080313B60001300317B200B6
:100A70000313C42439080317BE00031338080317EF
:100A8000BD00031337080317BC0003133608031710
:100A9000BB0003132B2379080317B3007808B200B7
:100AA0003308B5003208B400031348080317B60032
:100AB000B608031D8C2D3508BC003408BB00031399
:100AC000832083107A080317DD007908DC0078089A
:100AD000DB007708DA0003135D080317E100031356
:100AE0005C080317E00003135B080317DF00031320
:100AF0005A080317DE00031319217A080317BE00F2
:100B00007908BD007808BC007708BB0003132B23CD
:100B10007908F12DF12D0317360B9B2D0310340DA1
:100B2000F900350DFA007908F8007A08F900031386
:100B3000F12DF12D03173608023C031DF22D831011
:100B4000031355080317DD00031354080317DC00D3
:100B5000031353080317DB00031352080317DA00CB
:100B6000031359080317E100031358080317E000A3
:100B7000031357080317DF00031356080317DE009B
:100B80000313192177080317B7007808B80079080C
:100B9000B9007A08BA003508BC003408BB0003135A
:100BA0008320831403173A08DD003908DC00380875
:100BB000DB003708DA007A08E1007908E0007808FD
:100BC000DF007708DE00031319217A080317BE003F
:100BD0007908BD007808BC007708BB0003132B23FD
:100BE000790803177908BC007808BB000313832039
:100BF0007A08BD007908BC007808BB007708BA0005
:100C000002300317B2000313C42439080317BE00CF
:100C1000031338080317BD00031337080317BC007C
:100C2000031336080317BB00C201C1014830C000DE
:100C30008530BF0003135F220317DD01F030DC00B5
:100C40007F30DB008A30DA007A08E1007908E000C2
:100C50007808DF007708DE000313A2207A08B900C5
:100C60007908B8007808B7007708B6003D08031780
:100C7000BE0003133C080317BD0003133B08031712
:100C8000BC0003133A080317BB00C201C10148307E
:100C9000C0008530BF0003135F220317DD01F03071
:100CA000DC007F30DB008A30DA007A08E100790866
:100CB000E0007808DF007708DE000313A2207A083E
:100CC000BD007908BC007808BB007708BA00023084
:100CD0000317B2000313C42439080317BE0003131B
:100CE00038080317BD00031337080317BC000313AC
:100CF00036080317BB0003132B2379080317B3002F
:100D00007808B200B4013308B6003208B500031306
:100D1000D8243D080317BE0003133C080317BD0089
:100D200003133B080317BC0003133A080317BB0067
:100D300003132B2379080317B3007808B20001309E
:100D4000B4003308B6003208B5000313D8240130CC
:100D5000F80008008C1EAA2E1808A8001A08F8002F
:100D6000A81CB42E18121816080008300317AF027A
:100D7000031CC62E2F30840083170310800C00083C
:100D80000319C62EC42E0000800BC32E03138A1530
:100D9000102C0030F8001F08E33978049F0042301F
:100DA000F700F70BD12E00009F149F18D52E1E08B8
:100DB000FA0083161E0883120317BB007A08BC00D2
:100DC000031383207A08B9007908B8007808B700BF
:100DD0007708B60002300317B2000313C4243908A1
:100DE0000317BE00031338080317BD0003133708A9
:100DF0000317BC00031336080317BB00C201C03041
:100E0000C1007F30C0008830BF0003135F22770825
:100E10000317AE007808AF007908B0007A08B10077
:100E2000DD003008DC002F08DB002E08DA00E101CD
:100E3000E0014830DF008530DE000313A2207A088D
:100E4000B9007908B8007808B7007708B600023012
:100E50000317B2000313C42439080317D90003137E
:100E600038080317D800031337080317D7000313F4
:100E700036080317D600031355080317DD000313C4
:100E800054080317DC00031353080317DB00031394
:100E900052080317DA0003134C23031C572F55087D
:100EA000B9005408B8005308B7005208B6005908F2
:100EB0000317D900031358080317D8000313570862
:100EC0000317D700031356080317D6000313390876
:100ED0000317DD00031338080317DC00031337087A
:100EE0000317DB00031336080317DA0003134C2340
:100EF000031C822F5908B9005808B8005708B700DA
:100F00005608B6003608F7003708F8003808F90028
:100F10003908FA0008000317AF1BA12F0F30F700A4
:100F20002E0EF7050A3077020318992F3030F70795
:100F30009B2F2F08F707770803130C1E9D2F99008E
:100F400003170F30AE050A302E020318A92F3030D8
:100F5000AB2FAF132F08AE072E0803130C1EAE2FB6
:060F600099008A15E12F43
:101000002B0DF7002C0DF8002D0DF9002E0DFA0018
:10101000F70DF80DF90DFA0DFC30F7057A080317F6
:10102000B1007908B0007808AF007708AE00B6309C
:10103000F700FA01F901F8012E082F0430043104F9
:10104000031D2428F70131280310F81B3028AE0DAA
:10105000AF0DB00DB10DFA0DF90DF80DF70B2428F9
:10106000F8137A080313D1007908D0007808CF006C
:101070007708CE000317BE012430BD007430BC00D9
:101080009230BB00031351080317C200031350082A
:101090000317C10003134F080317C00003134E08C2
:1010A0000317BF008A1103135F228A157A08D10043
:1010B0007908D0007808CF007708CE0001300317F8
:1010C000B2008A110313C4248A156D08C1006C088C
:1010D000C0006B08BF006A08BE0041080317DD00AE
:1010E000031340080317DC0003133F080317DB005A
:1010F00003133E080317DA00031351080317E10036
:10110000031350080317E00003134F080317DF0011
:1011100003134E080317DE008A110313A2208A1559
:101120007A08C1007908C0007808BF007708BE00BF
:10113000831045080317DD00031344080317DC0080
:10114000031343080317DB00031342080317DA00F5
:10115000E101E0012030DF008230DE008A1103135C
:1011600019218A1541080317D900031340080317F2
:10117000D80003133F080317D70003133E080317D3
:10118000D6007A08DD007908DC007808DB007708F3
:10119000DA008A1103134C238A15031C12298314C5
:1011A00045080317DD00031344080317DC0003138D
:1011B00043080317DB00031342080317DA00E101B9
:1011C000E0012030DF008230DE008A110313192194
:1011D0008A157A080317D9007908D8007808D7004B
:1011E0007708D600031341080317DD0003134008F6
:1011F0000317DC0003133F080317DB0003133E084B
:101200000317DA008A1103134C238A15031C1229D1
:101210004108C5004008C4003F08C3003E08C200A2
:10122000B5014129B50A3508323C03182029B5011A
:101230004108C5004008C4003F08C3003E08C20082
:10124000AB08031D3929AC08031D3929AD08031D5E
:101250003929AE08031D3929C101C001BF01BE01F2
:101260004108C5004008C4003F08C3003E08C20052
:1012700041294508C1004408C0004308BF00420896
:10128000BE003E08F7003F08F8004008F90041089A
:10129000FA008A157C2D0317CD01CC01CB01CA01C0
:1012A000D101D001CF01CE01D501D401D301D201AA
:1012B00083144108DD004008DC003F08DB003E08E5
:1012C000DA004508E1004408E0004308DF00420876
:1012D000DE008A11031319218A157A08F5007908AE
:1012E000F4007808F3007708F20075080317CD00C2
:1012F0007408CC007308CB007208CA00831603136D
:10130000680883120317D900831603136708831232
:101310000317D80083160313660883120317D70038
:1013200083160313650883120317D600DD01DC0161
:10133000DB01DA018A1103134C238A15031DCE2920
:1013400083108316640883120317DD0083160313CA
:10135000630883120317DC008316031362088312E9
:101360000317DB0083160313610883120317DA00E7
:101370007508E1007408E0007308DF007208DE0001
:101380008A11031319218A157A088316E400790853
:10139000E3007808E2007708E100831283147508FF
:1013A0000317DD007408DC007308DB007208DA0044
:1013B0007E08E1007D08E0007C08DF007B08DE009D
:1013C0008A11031319218A157A080317D1007908A5
:1013D000D0007808CF007708CE007508FE007408AA
:1013E000FD007308FC007208FB003508DD003408BE
:1013F000DC003308DB003208DA004D08E1004C085D
:10140000E0004B08DF004A08DE008A110313A22027
:101410008A1577080317D6007808D7007908D8000E
:101420007A08D9003908DD003808DC003708DB000D
:101430003608DA0083160313640883120317E100E9
:1014400083160313630883120317E0008316031344
:10145000620883120317DF008316031361088312E7
:101460000317DE008A110313A2208A1583100317C5
:101470005908DD005808DC005708DB005608DA0080
:101480007A08E1007908E0007808DF007708DE00DC
:101490008A11031319218A1577080317D6007808D3
:1014A000D7007908D8007A08D9003D08DD003C084B
:1014B000DC003B08DB003A08DA005108E100500884
:1014C000E0004F08DF004E08DE008A110313A2205F
:1014D0008A15831003175908DD005808DC005708E7
:1014E000DB005608DA007A08E1007908E0007808A5
:1014F000DF007708DE008A11031319218A15831093
:1015000003174908DD004808DC004708DB004608EF
:10151000DA007A08E1007908E0007808DF0077084F
:10152000DE008A11031319218A157A080317D500E2
:101530007908D4007808D3007708D2005508D9007C
:101540005408D8005308D7005208D6000313550892
:101550000317DD00031354080317DC0003135308BB
:101560000317DB00031352080317DA008A11031371
:101570004C238A15031CD42A55080317D5000313DE
:1015800054080317D400031353080317D30003139D
:1015900052080317D20083160313E801E701E6019E
:1015A0007F30E5000E2B831259080317D90003136F
:1015B00058080317D800031357080317D70003135D
:1015C00056080317D6005508DD005408DC00530800
:1015D000DB005208DA008A1103134C238A15031C1E
:1015E000092B59080317D500031358080317D40013
:1015F000031357080317D300031356080317D20029
:1016000083160313E801E701E6017F30E5000E2BA6
:1016100083128316E801E701E601E501831203174F
:101620005208F7005308F8005408F9005508FA006A
:1016300003138A15922F840183131F3083057130A1
:1016400083168F000F088312A8010C3083169900AF
:10165000A2309800903083129800AF10B001B4010E
:10166000B301B201B101AF11B5012F12C101C00127
:10167000BF01BE01C501C401C301C201D101D00136
:10168000CF01CE01AF13F501F401F301F201FE0128
:10169000FD01FC01FB018316E401E301E201E1012C
:1016A000E801E701E601E5018312031787018801DC
:1016B0009C019D019E0103139F121F13003083168E
:1016C0009100970107309C008A11831260288A15C7
:1016D000CA018A118D238A15CC01AF12AA01CB0150
:1016E0002F138316E901ED01EC01EB01EA01EE0194
:1016F000EF0183120317A001A101A301A20124108D
:101700008316031385118312851555080317B1003D
:10171000031354080317B000031353080317AF0053
:10172000031352080317AE008A11031325258A15E7
:101730008316EE018312871A8D2C55080317B1000A
:10174000031354080317B000031353080317AF0023
:10175000031352080317AE008A11031325258A15B7
:101760008316EF018312871A8D2C00308C1A0130FA
:10177000003A0319842C8A11AA268A157808CD000C
:101780004D08243C031DDE2BC9014908403C031CC5
:10179000DE2B490803178D0083168C130C1483125B
:1017A0000C080313CC004230F700F70BD52B0000D8
:1017B0004C080C1ED92B9900C90AC52B4D082A3C90
:1017C000031D7E2CCB0183166F083F3C031C182C95
:1017D00083128C1CF02B01308316EF0783128C10C0
:1017E0008C1E162CA0304B07840083130317B10105
:1017F0000408B0003110831B31148A110313AA2688
:101800008A1503173008840083133118831778086A
:1018100080000230AE00F830AF008A110313B52EFD
:101820008A150317AE0B0B2C0313CB0AE32B83167D
:10183000A03083124B078400831380010B08F7004C
:101840008B1303178D012A308C0083168C130C1513
:1018500055308D00AA308D008C148C182D2C0C1155
:101860007708831203138B0401300317B2008A1127
:101870000313C4248A150130C900CC014908403C37
:10188000031C742C01304902A03E8400831300081D
:10189000CC000B08F7008B13490803178D000313C6
:1018A0004C0803178C0083168C130C1555308D00D3
:1018B000AA308D008C148C185B2C0C1177088312C5
:1018C00003138B048430F700F70B642C672C0000A3
:1018D000C90A4C08233C031D732C01308316E90010
:1018E000EE018312742C3E2C01300317B2008A11D2
:1018F0000313C4248A158A118D238A158316690B54
:10190000852CEE0183128D2C83160C30F700F70B1B
:10191000872C8A2C0000B22B831200308C1A0130E5
:10192000003A0319A62C01300317B2008A110313E1
:10193000C4248A158A11AA268A157808A900AF142A
:101940000317A301A2011A30A10003138C1CC62C9B
:101950008316EE0A83120317A00AA20A0319A30A28
:10196000A10A03138C100317241C831603136E089B
:10197000013C0318C42C8312AF1DC02C8316C42C49
:10198000AF15B001C62C831683128C1083166E0817
:10199000053C0318E72C8312B008031DE22C8316C4
:1019A000EE018312C101C001BF01BE01C501C40126
:1019B000C301C201B001AE01AD01AC01AB012F15F5
:1019C000AF12E52C8316EE018312AF11831683123A
:1019D00003172008013C0318FC2C03132F1DF22CC5
:1019E0000317FC2C0317A0018316031306134030C2
:1019F00083128606062D031703132F1D062D0317CA
:101A0000A00183160313061383120613031723087A
:101A1000013C0318172DFF3A031D122D2208583CD4
:101A20000318172D0313AF100317A301A20103130B
:101A3000AF18202DAF1A202D470846020318282D75
:101A4000AF182B2DAF1A2B2D4708460203182B2D4C
:101A50004708C6006E2DAF18362DAF1E362D47082D
:101A60004602031C362D4708C6006E2DAF18422DC6
:101A7000AF1E422D470846020318422D03172414B7
:101A80006D2D0313AF1C4D2DAF1A4D2D29084602A5
:101A9000031C4D2D2908C6006E2DAF1C582DAF1A02
:101AA000582D290846020318582D2908C6006E2D06
:101AB000AF1C632DAF1E632D29084602031C632D46
:101AC0002908C6006E2DAF1C6E2DAF1E6E2D290885
:101AD000460203186E2D0317241403132F1F772DAE
:101AE000AF18772D83160511831205157B2D8316EC
:101AF00005118312051100287A08B4007908B30093
:101B00007808B2007708B100AF1ACE2E8316E40130
:101B1000E301E201E101E801E701E601E5018613E5
:101B200083128613033046020317BC01BB008A11DF
:101B3000031383208A157A080317D9007908D8007F
:101B40007808D7007708D600031334080317DD00A0
:101B5000031333080317DC00031332080317DB00F9
:101B6000031331080317DA008A1103134C238A1573
:101B70000318BC2D031DFD2D033046020317BC01C5
:101B8000BB008A11031383208A157A080317D90032
:101B90007908D8007808D7007708D60003133408EE
:101BA0000317DD00031333080317DC0003133208A7
:101BB0000317DB00031331080317DA008A1103133C
:101BC0004C238A150318E82D0319E82D2F1EFC2D30
:101BD000CB0A55080317B100031354080317B000CC
:101BE000031353080317AF00031352080317AE0083
:101BF0008A11031325258A15032E2F138316051129
:101C0000831205112F124B08053C0318102E0317E1
:101C1000241C0C2E0313102E40300313AF06CB01EF
:101C20000317A801A701A601A5018A110313C9265C
:101C30008A157A080317A8007908A7007808A60073
:101C40007708A5000330031346020317BC01BB004D
:101C50008A11031383208A1534080317D90003134C
:101C600033080317D800031332080317D7000313F0
:101C700031080317D6007A08DD007908DC007808FF
:101C8000DB007708DA008A1103134C238A15031C42
:101C9000582E2F1A582E03172808B1002708B00015
:101CA0002608AF002508AE008A11031325258A15E2
:101CB000033046020317BC01BB008A1103138320C3
:101CC0008A157A080317D9007908D8007808D70050
:101CD0007708D600031334080317DD000313330815
:101CE0000317DC00031332080317DB00031331086A
:101CF0000317DA008A1103134C238A150318822E66
:101D0000031D842E2F1EAE2E033046070317BC0181
:101D1000BB008A11031383208A1534080317D900E6
:101D2000031333080317D800031332080317D7002F
:101D3000031331080317D6007A08DD007908DC00A8
:101D40007808DB007708DA008A1103134C238A1520
:101D50000318AC2E031DCD2E2F1ECD2E55080317B4
:101D6000D900031354080317D800031353080317AB
:101D7000D700031352080317D6002808DD002708F0
:101D8000DC002608DB002508DA008A1103134C2347
:101D90008A150318CC2E0319AF16C82FAF1EC82FF3
:101DA00083168613831286172F16CB0A4B08023C24
:101DB0000318E32E0317241CDF2E0313E32E4030F9
:101DC0000313AF06CB010317AC01AB01AA01A901B4
:101DD0008A110313C9268A157A080317AC007908FB
:101DE000AB007808AA007708A900831003135508F0
:101DF0000317DD00031354080317DC000313530813
:101E00000317DB00031352080317DA00E101E001B6
:101E1000DF018030DE008A11031319218A157A0848
:101E20000317D9007908D8007808D7007708D600BA
:101E30002C08DD002B08DC002A08DB002908DA006A
:101E40008A1103134C238A15031CB62F2F1CB52FA0
:101E50002F100317BC01031346080317BB008A1198
:101E6000031383208A1577080317AE007808AF00A4
:101E70007908B0007A08B100031361080317B500B0
:101E8000031360080317B40003135F080317B300BC
:101E900003135E080317B200031365080317B900A4
:101EA000031364080317B800031363080317B7008C
:101EB000031362080317B600031369080317BD0074
:101EC000031368080317BC00031367080317BB005C
:101ED000031366080317BA003108C1003008C000B8
:101EE0002F08BF002E08BE00031334080317C500D7
:101EF000031333080317C400031332080317C30086
:101F0000031331080317C2007108C9007008C80024
:101F100003136F080317C70003136E080317C600E7
:101F200003134B297A088316ED007908EC00780832
:101F3000EB007708EA006D0883120317B1008316DF
:101F400003136C0883120317B000831603136B0886
:101F500083120317AF00831603136A088312031753
:101F6000AE008A11031325258A15C82F8316861300
:101F700083128613AF128316E401E301E201E1014B
:101F8000E801E701E601E5018312031724100313BA
:101F900003172108323C0318E72FA1010130AE00DE
:101FA000303003130C1ED22F99000317AE0BD02F25
:101FB000031346080317AE003730AF008A1103132E
:101FC0008B2F8A150A300C1EE32F99000317AD01E1
:101FD0002D08A93C031CF32F5430F700F70BEE2F0C
:101FE000F12FAD0AE82F0130B2008A110313C42487
:061FF0008A159B2B630023
:02400E00E43F8D
:00000001FF
;PIC16F913
;CRC=FC54  CREATED="21-May-23 23:11"
